:0300000002163EA7
:0F000300EF6006D28243120122C2825312FE2204
:0100120032BB
:030013000222B115
:1000160090E740E512F0A3E511F0E490E68AF0904F
:0D002600E68B7402F090E6A0E04480F0222A
:0300330002258B18
:0D003600EF600643B270D2872243B2702201
:03004300021300A5
:0D0046007E307F9F121EDEE4903009F02214
:0300530002130095
:10005600A3F0E4903007F090300BE0903006F0907B
:10006600300EE0FCA3E0FDA3E0FEA3E0FF9030002D
:10007600120464E4903004F0E4903009F0F50AF5D7
:100086000B9030E2E07002A3E0701D903000E0FCBF
:10009600A3E0FDA3E0FEA3E0FFEC4D4E4F7003028C
:1000A6000180121F5D020180903005E0FF1209B346
:1000B600903007E030E013120C9A121D3EEF7004E8
:1000C6007F0180027F008F0A8003120B709030063A
:1000D600E0FF903005E06F700302016B90300AE09C
:1000E60004F0E50A6060903000E0FCA3E0FDA3E0C8
:1000F600FEA3E0FFEC4D4E4F604CA3E0FFE50BC3C3
:100106009F50437F061209B37F041209B390300053
:10011600E0F8A3E0F9A3E0FAA3E0FBC0009030000A
:10012600E0FCA3E0FDA3E0FEA3E0FF7802120431A9
:10013600D000EB2FFFEA3EFEE93DFDE83CFC9030A7
:10014600001204648008903006E0FF1209B3903074
:1001560000E0FCA3E0FDA3E0FEA3E0FFEC4D4E4F64
:100166006003121F5DE50A6011903004E0FFAE0BDC
:10017600050BEEC39F50030200AEE50A601A9030ED
:1001860004E0FF600DE50BD39F4007903009741320
:09019600F0229030097412F022ED
:10019F00E490E68BF09031C77402F0A3E4F0903155
:1001AF00E5E0FE9031E4E0FDEDFF9031C7E0FCA308
:1001BF00E0FD240AF582E43CF583EEF0A3EFF0EDC9
:1001CF00240CF582E43CF5837401F0A37423F0ED65
:1001DF002408F582E43CF5837413F0A3F07F011239
:0A01EF0021D890E6A0E04480F02241
:0701F9007B017A31799022AD
:10020000120100020000004013138180000001026F
:1002100003010A06000200000040010009022E004E
:1002200001010080FA0904000004FF000000070536
:100230000202000200070504020002000705860210
:100240000002000705880200020009022E000101D9
:100250000080320904000004FF00000007050202CC
:100260004000000705040240000007058602400028
:10027000000705880240000004030904120354002B
:1002800068006F0072006C006100620073000E0372
:0E0290004300430053003100300030000000F6
:10029E00BB010689828A83E0225002E722BBFE025E
:1002AE00E32289828A83E49322BB010689828A83B0
:1002BE00F0225002F722BBFE01F322C5F0F8A3E0B4
:1002CE0028F0C5F0F8E582158270021583E038F04B
:1002DE0022A3F8E0C5F025F0F0E582158270021534
:1002EE0083E0C838F0E822BB010A89828A83F0E5F0
:1002FE00F0A3F0225006F709A7F01922BBFE06F371
:10030E00E5F009F31922E88FF0A4CC8BF0A42CFCB5
:10031E00E98EF0A42CFC8AF0EDA42CFCEA8EF0A45D
:10032E00CDA8F08BF0A42DCC3825F0FDE98FF0A4EC
:10033E002CCD35F0FCEB8EF0A4FEA9F0EB8FF0A4E3
:10034E00CFC5F02ECD39FEE43CFCEAA42DCE35F01F
:10035E00FDE43CFC2275F008758200EF2FFFEE33B2
:10036E00FECD33CDCC33CCC58233C5829BED9AEC1A
:10037E0099E58298400CF582EE9BFEED9AFDEC9984
:10038E00FC0FD5F0D6E4CEFBE4CDFAE4CCF9A8828E
:10039E0022B800C1B90059BA002DEC8BF084CFCE33
:1003AE00CDFCE5F0CBF97818EF2FFFEE33FEED33F1
:1003BE00FDEC33FCEB33FB10D703994004EB99FBB8
:1003CE000FD8E5E4F9FA227818EF2FFFEE33FEEDA1
:1003DE0033FDEC33FCC933C910D7059BE99A4007AE
:1003EE00EC9BFCE99AF90FD8E0E4C9FAE4CCFB22C5
:1003FE0075F010EF2FFFEE33FEED33FDCC33CCC88E
:10040E0033C810D7079BEC9AE899400AED9BFDEC98
:10041E009AFCE899F80FD5F0DAE4CDFBE4CCFAE4D7
:10042E00C8F922E8600FECC313FCED13FDEE13FECA
:10043E00EF13FFD8F1227401FF3395E0FEFDFC08A7
:10044E000808E6CF2FF618E6CE3EF618E6CD3DF6B6
:10045E0018E6CC3CF622ECF0A3EDF0A3EEF0A3EF01
:10046E00F022A8828583F0D083D0821204871204F2
:10047E0087120487120487E473E493A3C583C5F03F
:10048E00C583C8C582C8F0A3C583C5F0C583C8C5DA
:10049E0082C822D083D082F8E493701274019370D4
:1004AE000DA3A393F8740193F5828883E473740209
:1004BE00936860EFA3A3A380DFD083D082F8E49388
:1004CE007012740193700DA3A393F8740193F582C7
:1004DE008883E473740293B5F0067403936860E93D
:1004EE00A3A3A3A380D8E709F608DFFA8046E7099D
:1004FE00F208DFFA803E88828C83E709F0A3DFFAE8
:10050E008032E309F608DFFA806EE309F208DFFABB
:10051E00806688828C83E309F0A3DFFA805A898291
:10052E008A83E0A3F608DFFA804E89828A83E0A3ED
:10053E00F208DFFA804280D280FA80C680D48055DD
:10054E0080F28029801080A680EA809A80A880DAC6
:10055E0080E280CA802988848C8589828A83E4938C
:10056E00A30586F0A30586DFF5DEF3800B89828A6C
:10057E0083E493A3F608DFF9ECFAA9F0EDFB2288E9
:10058E00848C8589828A83E0A30586F0A30586DFA5
:10059E00F6DEF480E389828A83E493A3F208DFF91E
:1005AE0080D688F0EF60010E4E60CD88F0ED24020B
:1005BE00B4040050C3F582EB2402B4040050B923F6
:0805CE002345822390054473CC
:1005D60090E600E054E74410F00000000000000040
:1005E60000000000000000000090E60174FAF00030
:1005F6000000000000000000000000000000009065
:10060600E61274A0F00000000000000000000000E8
:100616000000000000E490E613F000000000000077
:100626000000000000000000000090E61474E0F0F6
:1006360000000000000000000000000000000000B4
:10064600E490E615F090E6047480F00000000000E7
:1006560000000000000000000000007402F000002E
:10066600000000000000000000000000000074060A
:10067600F000000000000000000000000000000084
:1006860000E4F00000000000000000000000000090
:1006960000000090E61804F00000000000000000D2
:1006A60000000000000000007411F00000000000CF
:1006B600000000000000000000000090E61A740927
:1006C600F000000000000000000000000000000034
:1006D600001211DB90E6F3E04420F0000000000079
:1006E600000000000000000000000090E6D2740147
:1006F600F000000000000000000000000000000004
:100706000090E6E204F00000000000000000000097
:1007160000000000000090317EE090E6C7F0000087
:100726000000000000000000000000000000903102
:1007360082E090E6CBF00000000000000000000020
:10074600000000000000903185E090E60CF000000B
:1007560000000000000000000000000000009031D2
:1007660083E090E6CCF000000000000000000000EE
:10077600000000000000903184E090E6CDF000001B
:10078600000000000000000000000000000090E6ED
:1007960080E030E71C90E6247402F00000000000C0
:1007A6000000000000000000000000E490E6258044
:1007B6001AE490E624F000000000000000000000AB
:1007C60000000000000090E6257440F000000000E4
:0D07D60000000000000000000000000022F4
:1007E300D39031F0E094409031EFE09400400575F0
:1007F30013018069C39031E5E094C09031E4E09443
:100803007F401EA3E024C0F5099031E4E034FFF5F6
:1008130008C3E50994C0E508947F40057513028079
:100823003CD39031E5E094409031E4E094004037CC
:10083300A3E024C0F50B9031E4E034FFF50AC37460
:10084300C0950BF50B747F950AF50AD39031F0E050
:10085300950B9031EFE0950A400D75130290E6A0D9
:10086300E04401F00209AE9031E4E0FEA3E0780633
:10087300CEC313CE13D8F9FF9031C7EEF0A3EFF038
:100883009031C7E0FEA3E07806C333CE33CED8F968
:10089300F5098E08C39031E5E09509F5099031E437
:1008A300E09508F508C374409509F50BE49508F540
:1008B3000AC39031F0E0950B9031EFE0950A5007B1
:1008C300E0F50AA3E0F50B9031E4E0F508A3E0F5C9
:1008D30009E49031C9F0A3F07D0890E68AF090E630
:1008E3008BF090E6A0E020E1F9ED640860030209D3
:1008F3008AD39031F0E094009031EFE094005003FC
:1009030002098A9031C9A3E02440F582E434E7AFB9
:1009130082F50F8F10AB0BAD09AF08121515AD079C
:10092300BD08C6C39031F0E0950BF09031EFE09530
:100933000AF09031CAE0250BF09031C9E0350AF096
:100943009031C8E004F070069031C7E004F09031B4
:10095300C7E0FEA3E07806C333CE33CED8F9F5095A
:100963008E08D39031F0E094409031EFE094004052
:1009730009750A00750B400208EC9031EFE0F50AA7
:10098300A3E0F50B0208ECED24F9600814700AE407
:10099300F513800F751320800375132190E6A0E0F3
:1009A3004401F0E490E68BF090E6A0E04480F0226E
:1009B300E4FEEF7021D284C286D286C286D286C27A
:1009C30086D286C286D286C286D286C286D28690D6
:1009D300300AF0020B6D90300AE0FD6F6014BF0720
:1009E30004EDB40608BF0E0AED640D60057E150222
:1009F3000B6DEFB5050CBF0603020AA2BF0D030280
:100A03000B1290300AE0FD6F7003020B6DEDB41012
:100A1300004003020B63900A20F8282873020A504F
:100A2300020A53020A56020A78020A7F020A8E0257
:100A33000AA2020AB1020AD2020AD9020AE8020A87
:100A4300EF020AFE020B12020B21020B42020B45BC
:100A5300020B54EFC39409400ED284C286D286900F
:100A6300300A7409F0809BC284C286D28690300A11
:100A73007403F0808DBF040280378000D284C28665
:100A8300D28690300A7405F0020A05BF060FC284AD
:100A9300C286D28690300A7406F0020A058021D2FB
:100AA30084C286D28690300A7407F0020A05BF0416
:100AB3000FC284C286D28690300A7404F0020A05FB
:100AC300D284C286D28690300A7408F0020A05BF27
:100AD3000102806E807BC284C286D28690300A7403
:100AE3000AF0020A05BF0B0280378000D284C28657
:100AF300D28690300A740CF0020A05BF0D0FC2842F
:100B0300C286D28690300A740DF0020A058021D283
:100B130084C286D28690300A740EF0020A05BF0B97
:100B23000FC284C286D28690300A740BF0020A0583
:100B3300D284C286D28690300A740FF0020A05BFAF
:100B4300010FC284C286D28690300A7401F0020A71
:100B530005D284C286D28690300A7402F0020A0556
:100B63007E1590300AEFF0020A05AF062290301589
:100B7300E0FEA3E0FF903018E02FFF903017E03E37
:100B8300FAA9079031C77401F0A3EAF0A3E9F0D3FF
:100B93009030E3E094089030E2E094005003020CBC
:100BA3002DE0FCA3E0FDAE047803CEC313CE13D82F
:100BB300F914F50C75F008A4FFC3ED9FFEEC95F056
:100BC3009030E2F0A3CEF0AF0C150CEF605C9031E7
:100BD300C874FFF5F01202C99031C7E0FBA3E0FA35
:100BE300A3E0F912029EF520139285C286D286E510
:100BF30020A2E19285C286D286A2E29285C286D2E3
:100C030086A2E39285C286D286A2E49285C286D268
:100C130086A2E59285C286D286A2E69285C286D254
:100C230086339285C286D286809D9030E2E0700240
:100C3300A3E060629031C7E0FBA374FFF5F01202FA
:100C4300C9A9F0FA12029EF520E4F50C9030E2E017
:100C53007002A3E060D4E50CC3940850CD9030E358
:100C6300E024FFF09030E2E034FFF0903006E0FF44
:100C7300903005E06F600C9030E2E07002A3E0700A
:100C830002D284E520139285E520C313F520C286A2
:100C9300D286050C80B622903015E0FFA3E0903099
:100CA3005CCFF0A3EFF0903015A3E0245EF9E434B9
:100CB30030FA9031CA7401F0A3EAF0A3E9F090305E
:100CC30015E0FEA3E0FF903018E02FFF903017E00F
:100CD3003EFAA9079031C77401F0A3EAF0A3E9F043
:100CE3009030E2E07002A3E07003020D9B9031C8E4
:100CF30074FFF5F01202C99031C7E0FBA3E0FAA339
:100D0300E0F912029E9031CDF0E4A3F0FC9030E2C2
:100D1300E07002A3E06060ECC39408505A9030E3A3
:100D2300E024FFF09030E2E034FFF0903006E0FE84
:100D3300903005E06E600C9030E2E07002A3E0704A
:100D430002D2849031CDE0FE30E004D2858002C22D
:100D530085EEC3139031CDF0C286308715A3E0FE34
:100D6300AF047401A807088002C333D8FC4E903146
:100D7300CEF0D2860C80969031CB74FFF5F0120240
:100D8300C99031CEE0FF9031CAE0FBA3E0FAA3E0C3
:090D9300F9EF1202B7020CE32291
:100D9C00903008EFF0E4A3F0EF1204A10DE5000D84
:100DAC00EA010DF5020DFF030E09040E13070E1DCB
:100DBC00080E27090E310C0E310D0E310E0E3B0FA5
:100DCC000E3B100E3B110E45120E4F130E4F140E10
:100DDC0059150E631700000E6DE4FF0200367F01FB
:100DEC00120036120046020E757F011200361222D6
:100DFC005B80767F01120036121D84806C7F01129D
:100E0C00003612239880627F011200361225698009
:100E1C00587F0112003612217C804E7F0112003661
:100E2C00121E5380447F01120036121F1C803A7F21
:100E3C0001120036121DC980307F011200361225B6
:100E4C001080267F011200361220B6801C7F011202
:100E5C00003612208380127F01120036121B2E8066
:100E6C0008E4FF1200367F1422903009E06005E49C
:0A0E7C00FF120036903009E0FF225B
:100E86009031C3E07003020F265312FD5312FB4349
:100E960012085312EF5312DF5312BF53127FE5BBF2
:100EA60030E77AE4F09031C604F00000000000005C
:100EB6000000000000000000000090E6D0740EF074
:100EC600000000000000000000000000000000001C
:100ED60090E6D1746EF000000000000000000000F3
:100EE600000000000000121C670000000000000067
:100EF60000000000000000000075BB0600000000B6
:100F06000000000000000000000000005312FD5326
:100F160012FB5312F74312105312DF8003431240A1
:100F26009031C6E06041E5BB30E73C0000000000C0
:100F3600000000000000000000000090E648740673
:100F4600F0E49031C6F04312025312FB5312F753EA
:100F560012EF4312209031C4E07004A3E0640370E2
:080F6600061225284312802227
:080F6E004131EE004131E300C6
:100F76004131C2004131C3004131C6004231C40093
:050F86000041318F0065
:100F8B00608030E40201010101010107020202024B
:100F9B000202020003070707070707030000000010
:100FAB000000003F01013F010101010700020100A8
:100FBB000000000001000303030303030000000013
:100FCB000000003F0101013B01010107000000038C
:100FDB000202020003010003030303030000002DC0
:100FEB000000003F399101013901010701010002A5
:100FFB000100000003030100030303032DF00000B5
:10100B002D00003F6024316B000000000000000049
:10101B0000000000000000000000833600030707FB
:10102B00030201000000000000000000473164E0F3
:06103B00100003FA1E0084
:0110410000AE
:101042008E088F0912240E1224E3121F9B5312FDE5
:101052004312045312F75312EF5312DF5312BFE538
:10106200086003021111E509146031146052146022
:101072007624036003021111E49031C4F0A3F0FF5F
:101082007E301223B97F007E401223B97F011224E1
:101092001312252853127F5311FE80209031C4E48D
:1010A200F0A304F0FF7E301223B97F007E401223AA
:1010B200B97F0112241353127F4311015311FD22F0
:1010C2009031C4E4F0A37402F07F007E301223B9A1
:1010D2007F017E401223B97F011224131225284377
:1010E20012805311FE80259031C4E4F0A37403F002
:1010F2007F007E301223B97F017E401223B97F0127
:101102001224131225284312804311014311022293
:1011120090E6BFE09031EFF090E6BEE09031F0F063
:1011220090E6BDE09031E6F090E6BCE09031E7F069
:1011320090E6BBE09031E4F090E6BAE09031E5F061
:1011420090E6B8E030E744A3E024DF601B24FE60B1
:101152002614602814602A24F560172431600E24B6
:10116200DF7023121CF7806F1219AB806A1223F30F
:1011720080651200168060121E97805B1223288001
:1011820056121E0E805112251C804C90E6B9E024A6
:10119200EF601E14602024F2602114602324FE609C
:1011A2002414602624FE602724167028121CB080A6
:1011B2002612019F802112211A801C121C1E8017E8
:1011C2001207E38012121A19800D1223D880081216
:0911D200254080031224BFC32252
:1011DB0090E60174FAF090E6F574FFF0903164E05C
:1011EB0090E6F3F0903165E090E6C3F0903166E065
:1011FB0090E6C1F0903167E090E6C2F0903169E083
:10120B0090E6C0F090316AE090E6F4F075AF0774A9
:10121B0030F59A74E4F59B759DE4E4F59EFF90E63A
:10122B007BE090E67CF00FBF80F490E67174FFF0EA
:10123B00F5B490E672E04480F043B680000000E421
:10124B0090E6C4F000000090E6C5F090316BE090A2
:10125B00E6C6F090316CE090E6C7F090316DE0900F
:10126B00E6C8F090316EE090E6C9F090316FE090F7
:10127B00E6CAF0903170E090E6CBF0903171E090DF
:0C128B00E6CCF0903172E090E6CDF0224D
:1012970012259C506090E6B8E024FE601824027086
:1012A7004D90E6BAE0B40103D2082290E6BAE064B2
:1012B700026042803990E6BCE0547EFF7E00E0D3B6
:1012C70094807C0040047D0180027D00EC4EFEEDA1
:1012D7004F245FF58274253EF583E493FF3395E051
:1012E700FEEF24A1FFEE34E68F82F583800390E6BC
:0612F700A0E04401F0221A
:0312FD0002257B4C
:101300000222DA000223730002234E0002230100AE
:1013100002214B0002204B000200120002259E0019
:1013200002259F000225A0000225A1000225A2009F
:101330000225A3000225A4000225A5000225A6007F
:101340000225A70002259E000225A8000225A9006B
:101350000225AA000225AB000225AC000225AD0043
:101360000225AE0002259E0002259E0002259E0059
:101370000225AF000225B0000225B1000225B2000F
:101380000225B3000225B4000225B5000225B600EF
:101390000225B7000225B8000225B9000225BA00CF
:1013A0000225BB000225BC000225BD000225BE00AF
:0813B0000225BF000225C00068
:1013B800E4F50878CF7C317D017BFF7A257934FE0E
:1013C8007F021205B078D17C317D017BFF7A2579C7
:1013D800367E007F081205B07A317BCF7D027F51BF
:1013E800121BD47A317BC77D087F5112146BEF240E
:1013F800F9600814700AE4F5138008751320800357
:10140800751321EF64086003431180E4F50874D173
:101418002508F582E43431F583E0FE74C72508F524
:1014280082E43431F583E06E602F431140750F314B
:101438007510D17B08E4FDFF121515EF24F960083B
:1014480014700AE4F51380087513208003751321BE
:10145800EF6408600D431180220508E508C394086D
:0314680040AC2273
:10146B008A098B0AA905AD0790E678E04480F0ED78
:10147B0025E04401A3F012229190E678E020E103ED
:10148B007F072290E679E0B9010790E678E04420E7
:10149B00F0E4FD12229190E678E030E2037F062221
:1014AB00ED2402FFE433FEE97A00B5071DEAB50629
:1014BB001990E678E04420F0A3E0FFE50A2DF582D1
:1014CB00E43509F583EFF00D80C9ED2401FFE4331A
:1014DB00FEE97A00B5071DEAB5061990E678E044F7
:1014EB0040F0A3E0FFE50A2DF582E43509F583EF23
:1014FB00F07F082290E679E0FFAE050DE50A2EF5A8
:0A150B0082E43509F583EFF08089D2
:10151500AA07E4FE12228690E678E030E2037F0611
:101525002290E678E020E1037F072290E679EAF051
:1015350012229190E678E030E2037F062290E67869
:10154500E020E1037F072290E679EDF012229190E9
:10155500E678E030E2037F062290E678E020E103BA
:101565007F0722E5102EF582E4350FF583E090E63E
:1015750079F00EEEC39B40D412229190E678E044B8
:1015850040F090E678E020E6F912228690E678E0D1
:1015950030E2037F062290E678E030E1ECE044405B
:0B15A500F090E678E020E6F97F0822D5
:1015B000122596400302163D90E6BBE024FE602211
:1015C00014605524FD6011146033240670687402A1
:1015D00090E6B3F074008059740290E6B3F0741290
:1015E000804F90E680E030E70A740290E6B3F07432
:1015F0001C8008740290E6B3F0744A803490E68050
:10160000E030E70A740290E6B3F0744A800874028E
:1016100090E6B3F0741C801990E6BAE0FF12201334
:10162000AA06A9077B01EA494B600BEE90E6B3F0EE
:0E163000EF90E6B4F02290E6A0E04401F02234
:0C163E00787FE4F6D8FD75812102168546
:10164A00021937E493A3F8E493A34003F68001F266
:10165A0008DFF48029E493A3F85407240CC8C333A1
:10166A00C4540F4420C8834004F456800146F6DF70
:10167A00E4800B0102040810204080900F6EE47E83
:10168A00019360BCA3FF543F30E509541FFEE49365
:10169A00A360010ECF54C025E060A840B8E493A32C
:1016AA00FAE493A3F8E493A3C8C582C8CAC583CA57
:1016BA00F0A3C8C582C8CAC583CADFE9DEE780BE0F
:1016CA00C28043B201C28343B2087F147E0012185B
:1016DA00C3D28153B2FD90E670E04402F0D28AD2BE
:1016EA00AAE4FFFE1223B97FCF7E1E1223B97FD14F
:1016FA007E2E1223B97F017E301223B97F007E40ED
:10170A001223B97F007E501223B9E49031ECF0A382
:10171A00F09031E8741EF0A374CFF09031EA742E81
:10172A00F0A374D1F0E49031C2F0A3F09031C6F086
:10173A004312025312FB5312F75312EF5312DF53A1
:06174A0012BF53127F22C2
:1017500012259A507990E6B8E024FE6010240270B9
:101760006D90E6BAE0B40103C20822805A90E6BA4E
:10177000E0705490E6BCE0547EFF7E00E0D394809D
:101780007C0040047D0180027D00EC4EFEED4F2484
:101790005FF58274253EF583E493FF3395E0FEEF19
:1017A00024A1FFEE34E68F82F583E054FEF090E64C
:1017B000BCE05480131313541FFFE0540F2F90E626
:0F17C00083F0E04420F02290E6A0E04401F02204
:1017CF00122598507790E6B8E0247F6015146019C1
:1017DF0024027061A208E43325E0FFA20AE4334F2C
:1017EF008041E490E740F0803F90E6BCE0547EFFFC
:1017FF007E00E0D394807C0040047D0180027D0058
:10180F00EC4EFEED4F245FF58274253EF583E49395
:10181F00FF3395E0FEEF24A1FFEE34E68F82F583D0
:10182F00E0540190E740F0E4A3F090E68AF090E6F0
:0D183F008B7402F02290E6A0E04401F0223C
:10184C00E4F50878DF7C317D017BFF7A25793EFE5B
:10185C007F021205B07A317BDF7D027F51121BD4DF
:10186C00EF640860034311207A317BC77D187F51E8
:10187C0012146BEF64086003431120BF080790310A
:10188C00C7E0B4FF119031907404F0A314F0A3746A
:10189C0030F0E4A3F022750C01750D31750EC77B89
:1018AC00017A317992121B848F08E5082402903159
:0718BC0090F0A37403F02279
:1018C3008E0A8F0BE50B450A606990E600E0541819
:1018D3007013AE0AAF0BFCFD7B88FAF9F812031400
:1018E300EF24F4803090E600E05418FFAE0ABF10F6
:1018F30013AF0BE4FCFD7B217A02F9F8120314EF1A
:1019030024F28011AF0BE4FCFD7B107A01F9F8128D
:101913000314EF24F3F50FEE34FFF50EED34FFF56A
:101923000DEC34FFF50C780C74FF120446EC4D4EAD
:041933004F70F322DC
:10193700C0D075D000C20BC208C20AC209122572F4
:10194700D2E843D82090E668E04409F090E65CE0EE
:10195700443DF090E680E020E1057F011221D85355
:101967008EF8C20B90E680E054F7F01212FD3009B2
:1019770005C209121AD5300BF212259250EDC20B8F
:1019870012245C20081690E682E030E704E020E1AC
:10199700EF90E682E030E604E020E0E41222041251
:0419A700259480C73C
:1019AB00D39031F0E094409031EFE0940040057516
:1019BB00130180387A317BE47D027F51121BD4BF37
:1019CB00081590E6A0E020E1F99031F0E0FD7AE710
:1019DB007B407F5112146BEF24F9600814700AE4FA
:1019EB00F51380087513208003751321E513600927
:1019FB0090E6A0E04401F0800DE490E68AF090318F
:0E1A0B00F0E090E68BF090E6A0E04480F02240
:101A1900E49031ECF0A3F09031E8F0A3F09031EAD2
:101A2900F0A3F090E68AF090E68BF090E6A0E02033
:101A3900E1F990E740E09031ECF090E741E0903136
:101A4900EDF090E742E09031E8F090E743E0903123
:101A5900E9F090E744E09031EAF090E745E0903111
:101A6900EBF09031E37401F0E4F51390E6A0E04463
:031A790080F022D8
:101A7C009031E3E0605212240E1224E3121F9B906B
:101A8C0031ECE0FEA3E0FF1223B99031E8E0FEA3B5
:101A9C00E0FF1223B99031EAE0FEA3E0FF1223B974
:101AAC007F01122413E49031E3F09031C4E0700410
:101ABC00A3E06403600C9031C4E07004A3E0640301
:091ACC0070061225284312802245
:101AD50090E6B9E0603114603324FE603424FB6085
:101AE5002114601914600C14600E2405702E121553
:101AF500B08021122485801C122555801712254B94
:101B05008012122471800D1217CF80081217508091
:101B15000312129790E6A0E04480F0221225875028
:091B25000790E6A0E04401F02263
:101B2E001224298F081224298F091224299031C7D3
:101B3E00EFF01224299031C8EFF01224299031C908
:101B4E00EFF01224299031CAEFF090300AE06508C8
:101B5E006005AF081209B39031C7E0FCA3E0FDA306
:101B6E00E0FEA3E0FF121F7090300AE065096005E9
:061B7E00AF091209B322B9
:101B84008B098A0A890BE4FFFEAB0CAA0DA90E127D
:101B9400029E603B050EE50E7002050D14F912025B
:101BA4009EFDAB09050BE50BAA0A7002050A14F9A0
:101BB400ED1202B7AB09050BE50BAA0A7002050A80
:101BC40014F9E41202B774022FFFE43EFE80BA2235
:101BD400AC07A905E4FE90E678E04480F0EC25E04B
:101BE400A3F012229190E678E030E2037F0622907F
:101BF400E678E020E1037F0722AF060EEB2FF582A3
:101C0400E43AF583E090E679F0EEB501D51222913D
:0A1C140090E678E04440F07F0822DB
:101C1E00E490E68AF090E68BF090E6A0E020E1F901
:101C2E009031E5E0FF9031F0E0FD7AE77B40121B4A
:101C3E00D4EF24F9600814700AE4F51380087513C4
:101C4E00208003751321E513600790E6A0E04401A0
:091C5E00F090E6A0E04480F022C1
:101C670090317DE090E6C6F0000000000000000023
:101C7700000000000000000090317FE090E6C8F00F
:101C8700000000000000000000000000000000004D
:101C9700903180E090E6C9F00000000000000000ED
:091CA70000000000000000002212
:101CB000E490E68BF09031F0E0FF90E68BE0C39F7C
:101CC00040F39031F0E0F514E4F5159031E5E0FFD4
:101CD000120D9C8F13E513600990E6A0E04401F01B
:101CE000800DE490E68AF09031F0E090E68BF09081
:071CF000E6A0E04480F022B1
:101CF7009031E5E0FF9031F0E0FD7AE77B40121488
:101D07006BEF24F9600814700AE4F5138008751363
:101D1700208003751321E513600890E6A0E0448155
:101D2700F022E490E68AF09031F0E090E68BF090B4
:071D3700E6A0E04480F02269
:101D3E0090305CA3E0FFAC071FEC6037741B2FF5EF
:101D4E0082E43430F583E0FD745E2FF582E43430A6
:101D5E00F583E0FE903007E030E11174A12FF5829B
:101D6E00E43430F583E0FC5205EC5206ED6E60C6AD
:061D7E007F00227F01221C
:101D84001221B19030057404F0903012E0FFA3E00A
:101D94009030E2CFF0A3EFF09030077403F090306E
:101DA4000BE0903006F090300EE0FCA3E0FDA3E0E1
:101DB400FEA3E0FF90300012046490300DE09030F8
:051DC40004F002007EA6
:101DC900903008E0B4110A90300CE0903006F080B1
:101DD900069030067404F09030077401F0903000DA
:101DE900120470000000001221AC121EDA903005B6
:101DF9007404F0903012E0FFA3E09030E2CFF0A33A
:051E0900EFF002007E75
:101E0E009031E4E0FEA3E0FFEE701EEF14601104CB
:101E1E00701790E7407401F0A304F0E4A3F0801271
:101E2E0090E7407401F0E48005E490E740F0A3F001
:101E3E00A3F0E490E68AF090E68B7403F090E6A0AF
:051E4E00E04480F022D9
:101E53009030077403F090300CE0903006F090302F
:101E63000EE0FCA3E0FDA3E0FEA3E0FF9030001230
:101E7300046490300DE01221AD121EDA9030057427
:101E830004F0903012E0FFA3E09030E2CFF0A3EF34
:041E9300F002007EDB
:101E97009031ECE090E740F09031EDE090E741F0D1
:101EA7009031E8E090E742F09031E9E090E743F0C5
:101EB7009031EAE090E744F09031EBE090E745F0AD
:101EC700E490E68AF090E68B7406F090E6A0E04492
:031ED70080F02276
:101EDA007E307F19903014E0FDEDFB8F828E83E413
:101EEA00F0A3EBF0E4FCED6028AB15051574402B6C
:101EFA00F582E434E7F583E0FBAA040C8F828E8333
:101F0A00A3A3E5822AF582E43583F583EBF01D80ED
:021F1A00D522CE
:101F1C00903008E0B40E0A90300CE0903006F0805F
:101F2C00069030067404F0E4903007F09030001204
:101F3C000470000000001221AC9030057404F09085
:101F4C003012E0FFA3E09030E2CFF0A3EFF00200FC
:011F5C007E06
:101F5D007F011209B3903000E0FCA3E0FDA3E0FE89
:101F6D00A3E0FF8F0F8E0E8D0D8C0CE47B04FAF920
:101F7D00F812039F8F0F8E0E8D0D8C0CC286D2869C
:0E1F8D00780C74FF120446EC4D4E4F70EF229C
:101F9B0090E6047480F000000000000000000000D8
:101FAB000000000000007406F000000000000000BC
:101FBB00000000000000000000E4F0000000000042
:0C1FCB00000000000000000000000022E8
:101FD70012240E1224E3121F9B7F011224134312B3
:101FE700025312FB5312F75312EF4312209031C4DE
:101FF700E07004A3E06403600C9031C4E07004A3B4
:0C200700E06403700612252843128022BA
:102013008F087E027F78E50824FD70081201F9AE6F
:1020230002AF01228F828E83A3E064037016AD0892
:102033001508ED7001228F828E83E07C002FFFEC68
:082043003EFE80E0E4FEFF22F6
:10204B00C0E0C083C082C085C084C0867586009006
:10205B00E680E030E70C90024B7407F090021D74A1
:10206B0002F05391EF90E65D7420F0D086D084D0CF
:08207B0085D082D083D0E03251
:102083001224298F081224298F09AF09AE081224BC
:1020930099EFD3944040079030097416F02212212F
:1020A300B6903005740BF09030E2E508F0E50912C4
:0320B300005622B2
:1020B600122429EF600B640160079030097415F053
:1020C60022903008E0B4130DEF90300B700304F04B
:1020D60022740DF022EF90300C700304F022740687
:0220E600F022E6
:1020E800E4F513F511F5127F101224431225817FB0
:1020F800011200037F0A7E001218C312250212166D
:10210800CA1213B812184CE49031EEF01224F4D22B
:02211800AF22F4
:10211A009031E4E0FEA3E08EF01204C72132010000
:10212A002136010100002138C2828002D282E513E1
:10213A00600790E6A0E04401F090E6A0E04480F059
:01214A002272
:10214B00C0E0C083C082C085C084C0867586009005
:10215B00024B7402F090021D7407F05391EF90E65E
:10216B005D7410F0D086D084D085D082D083D0E03F
:01217B003231
:10217C00122429122429122429903012EFF012244F
:10218C0029903013EFF0903012E0FEA3E0FF122400
:10219C0099A3EFF0D3944040069030097416F022C6
:1021AC00E4903004F0903014E0FFEFFD903015E433
:1021BC00F0A3EDF074402515F582E434E7AD829080
:0C21CC003017F0A3EDF0EF2515F51522FB
:1021D800EF90E6806006E0440AF08004E04408F0EE
:1021E8007FDC7E051218C390E65D74FFF090E65F11
:0C21F800F05391EF90E680E054F7F022E5
:1022040090E682E030E004E020E60B90E682E030E5
:10221400E119E030E71590E680E04401F07F147E98
:0C222400001218C390E680E054FEF02287
:10223000E4903008F0A3F090300DF090300AF0A355
:1022400004F0A3F0E4903012F0A3F0A3F090300E6D
:0B2250001204700000000053B20F22C7
:10225B001224298F087E00122499EFD39440400753
:10226B009030097416F0221221B6903005740BF0E1
:0B227B009030E2E4F0E508120056226B
:1022860090E678E04480F0A374A2F09031E1748681
:10229600F0A374A0F090E678E020E00E9031E174AF
:0B22A600FFF5F01202DF45F070EB22A4
:1022B100C0E0C083C082C085C084C086758600909E
:1022C100E6F4E030E0069031C37401F0D086D084AA
:0922D100D085D082D083D0E03228
:1022DA00C0E0C083C082C085C084C086758600D233
:1022EA00095391EF90E65D7401F0D086D084D085D1
:0722FA00D082D083D0E03256
:10230100C0E0C083C082C085C084C086758600D20B
:102311000B5391EF90E65D7408F0D086D084D085A0
:07232100D082D083D0E0322E
:102328007B007A0079081224AC90E740E508F0A316
:10233800E509F0E490E68AF090E68B7402F090E606
:06234800A0E04480F02239
:10234E00C0E0C083C082C085C084C086758600533D
:10235E0091EF90E65D7404F0D086D084D085D08263
:10236E00D083D0E032C0E0C083C082C085C084C0BC
:10237E00867586005391EF90E65D7402F0D086D09C
:0A238E0084D085D082D083D0E032E5
:1023980012242990300EEFF012242990300FEFF01C
:1023A800122429903010EFF0122429903011EFF008
:0123B8002202
:1023B900AD07AC06E5BB30E7FB90E6C0741EF090B4
:0F23C900E6F0ECF090E6F1EDF0E5BB30E7FB223B
:1023D800E490E68BF09031E4E0FEA3E0FF121042B7
:0B23E800E4F51390E6A0E04480F02232
:1023F300E490E68AF090E68B04F090E740E513F072
:0B240300E4F51390E6A0E04480F02216
:10240E001224D1E4FFEF60047F0180027F007E5032
:0B241E001223B97F017E001218C322B8
:10242900E515C39514501074402515F582E434E779
:0A243900F583E0FF0515227F002265
:10244300AD0790E600E054E7F0ED24F060042408C3
:09245300700690E600E04DF02255
:10245C0090E682E044C0F0E490E681F0438701000E
:05246C00000000002249
:102471009031F2E090E740F0E490E68AF090E68B4C
:0424810004F0D3226E
:102485009031F1E090E740F0E490E68AF090E68B39
:0424950004F0D3225A
:10249900EF2407FFE43EFEEF7803CEC313CE13D833
:0324A900F9FF2216
:1024AC00EA494B600D9031C4E0FFA3E0CF8FF012EE
:0324BC0002F52204
:1024BF00E490E68BF0F090E6A0E04401F0E0448079
:0224CF00F022F9
:1024D10090E6F574FFF0E49031C2F0A3F09031C6BC
:0224E100F022E7
:1024E30043B2085380F77F017E001218C34380086C
:0124F30022C6
:0E24F400122230E4FF1209B3903009EFF022FB
:0E250200C2E990E67AE054FDF0E04401F022D8
:0C2510001224291209B3903009EFF022C8
:0C251C0090E6A0E04401F0E04480F022D2
:0C252800D2807F017E001218C3C2802206
:0C2534000000C0131380800000010008AC
:0B254000121FD790E6A0E04480F022BC
:0A254B0090E6BAE09031F2F0D322DE
:0A25550090E6BAE09031F1F0D322D5
:0A255F000001020203030404050555
:0925690012242990300DEFF0223C
:092572001205D61224E30220E850
:06257B00121A7C02258FFC
:06258100C28243B20422F5
:0425870012111222F9
:04258B0053D8EF3200
:03258F00020E86B3
:06259200D322D322D32264
:06259800D322D322D3225E
:10259E00323232323232323232323232323232320D
:1025AE0032323232323232323232323232323232FD
:0325BE0032323284
:00000001FF